:100000000C94DA000C9471050C944A050C942305A9
:100010000C94FC040C9402010C9402010C94D50481
:100020000C9402010C9439080C9498050C94070662
:100030000C9402010C9402010C9402010C94020134
:100040000C9402010C9402010C9402010C94020124
:100050000C9402010C9402010C9402010C948B0488
:100060000C9402010C9402010C9402010C94020104
:100070000C9402010C9402010C9402010C940201F4
:100080000C9402010C9402010C9402010C940201E4
:100090000C9402010C9402010C9402010C940201D4
:1000A0000C9402010C9402010C940201080B000252
:1000B0000202000009040000010202000005240001
:1000C0001001052401010104240206052406000193
:1000D0000705810310004009040100020A00000026
:1000E00007050202400000070583024000000403E8
:1000F000090412010002EF020140FB1F002300016E
:1001000001020301506F6C6F6C7520436F72706F4A
:10011000726174696F6E00506F6C6F6C7520412D49
:100120005374617220333255340000000000240003
:1001300027002A002D0030000000000025002800C4
:100140002B002E00310000000000230026002900B3
:100150002C002F000404040404030405020202021C
:100160000403020202020606060606060404020250
:100170000204040408020110408040102040804026
:1001800080080204018040201002011080102040ED
:1001900040200000000200090F0000030401000CD1
:1001A000000000000000000000000000000000004F
:1001B0000000B50811241FBECFEFDAE0DEBFCDBFCF
:1001C00011E0A0E0B1E0E8E9FCE102C005900D9289
:1001D000A438B107D9F722E0A4E8B1E001C01D922C
:1001E000AB31B207E1F710E0CAEDD0E004C02197CF
:1001F000FE010E94080CC93DD107C9F70E94F00812
:100200000C944A0E0C940000FC018091B2018823EA
:1002100011F13FB7F89482E08093E9002091F20059
:10022000822F90E01816190614F481E090E08823DC
:1002300039F0289844E64093B1014091F1004083A1
:10024000222339F02091F200211103C02BE62093E4
:10025000E8003FBF08958FEF9FEF08952FB7F89400
:1002600083E08093E9009091E800892F807295FFE8
:1002700004C09091F20080E4891B2FBF0895809103
:10028000A90181110DC082E08093A50184E08093D3
:10029000A6011092A8011092A70181E08093A90104
:1002A00085EA91E0089581508F3008F047C0E82F2B
:1002B000F0E0E35AFE4F0C94080C7A017E016C01C9
:1002C000720176019E019E019E01810187018B01D1
:1002D0008F0195019E019901809180008F77809315
:1002E00080000895809180008F7DF9CF80918000FB
:1002F000877FF5CF84B58F7784BD089584B58F7DD2
:10030000FBCF809190008F7780939000089580912B
:1003100090008F7DF9CF80919000877FF5CF8091FD
:10032000C0008F778093C00008958091C0008F7DBA
:10033000F9CF8091C200877F8093C2000895CF9348
:10034000DF93282F30E0F901EE56FE4F8491F9013A
:10035000ED58FE4FD491F901EC5AFE4FC491CC23D5
:10036000A1F081110E945301EC2FF0E0EE0FFF1F6E
:10037000EA5BFE4FA591B491EC91ED2381E090E012
:1003800009F480E0DF91CF91089580E090E0FACF0A
:100390001F93CF93DF93282F30E0F901EE56FE4FE5
:1003A0008491F901ED58FE4FD491F901EC5AFE4FBA
:1003B000C491CC23A9F0162F81110E945301EC2F78
:1003C000F0E0EE0FFF1FE85CFE4FA591B4918FB7F0
:1003D000F894EC91111108C0D095DE23DC938FBF07
:1003E000DF91CF911F910895DE2BF8CF3FB7F8949E
:1003F0008091A1019091A201A091A301B091A401CB
:1004000026B5A89B05C02F3F19F00196A11DB11D6F
:100410003FBFBA2FA92F982F8827BC01CD01620FAB
:10042000711D811D911D42E0660F771F881F991F66
:100430004A95D1F708958F929F92AF92BF92CF9233
:10044000DF92EF92FF924B015C010E94F6016B017B
:100450007C010E94F6016C197D098E099F09683E96
:10046000734081059105A8F321E0821A9108A10843
:10047000B10888EEC80E83E0D81EE11CF11C81147F
:100480009104A104B10429F7FF90EF90DF90CF9081
:10049000BF90AF909F908F900895089540918601EE
:1004A00050918701209184013091850142175307B3
:1004B000B4F49091E8009570E1F39091E80092FD1A
:1004C00019C08093F1008091860190918701019677
:1004D0008F739927892B19F48EEF8093E800809110
:1004E0008601909187010196909387018093860100
:1004F00081E0089580E00895EF92FF920F931F939B
:10050000CF93DF93F82E192FE62E042F81E0860F6C
:10051000880F0E944E0283E00E944E02CF2DD12F01
:10052000EC0EFD2EF11CCE15DF05B9F007FF13C050
:10053000FE0184910E944E02182F80E00E944E021C
:10054000812321968111EFCFDF91CF911F910F91E0
:10055000FF90EF9008958881EDCF81E0F5CFDF9295
:10056000EF92FF920F931F93CF93DF93D82E8A01C0
:10057000EB017B01E40EF51ECE15DF0559F0D7FE29
:1005800012C0FE0184910E944E0221968111F4CF87
:100590000FEF1FEFC801DF91CF911F910F91FF90D7
:1005A000EF90DF9008958881EECF0F931F93CF9344
:1005B000DF931F92CDB7DEB782E0898342E450E03B
:1005C0006CEA70E080E80E94AF020E943F01DC010B
:1005D00012960D911C910115110589F0D801ED912C
:1005E000FC910280F381E02DBE016F5F7F4FC80157
:1005F000099597FD04C0F80100851185ECCF89812C
:100600000F90DF91CF911F910F910895615030F0BD
:100610002091F100FC0120830196F8CF289884E610
:100620008093B10108958F929F92AF92BF92CF9223
:10063000DF92EF92FF920F931F93CF93DF936C01A2
:100640007B018A0180910B01882309F45CC08091B1
:10065000B201882309F457C080918A0180FF05C048
:100660008091E00082608093E000E801B12C8AEF85
:10067000A82E93E0892E2AE3922E209711F4BB2016
:10068000D9F10E942E0181110AC0AA94AA20D9F1A1
:1006900061E070E080E090E00E941B02EECF8C17DA
:1006A0001D0611F00CF08C2F9FB7F8948092E90092
:1006B0002091E80025FD02C09FBFDFCF282F30E04A
:1006C000C21BD30BF701815020F041914093F10000
:1006D000FACFE20EF31EBB2021F09092E800B12C7D
:1006E000EBCF8091E80085FDE7CF9092E800BB2436
:1006F000B394209709F3F3CF5D9884E68093890142
:10070000101611063CF081E090E0F601938382839D
:1007100010E000E0C801DF91CF911F910F91FF9091
:10072000EF90DF90CF90BF90AF909F908F90089503
:10073000CF93DF931F92CDB7DEB76983DC01ED91D4
:10074000FC910280F381E02D41E050E0BE016F5F3B
:100750007F4F09950F90DF91CF91089583E08093AB
:10076000E9008091F200882319F08AE38093E80081
:1007700008950E942E0190E00895CF93DF931F9279
:10078000CDB7DEB7FC018485958597FD08C02FEFB6
:100790003FEF358724870F90DF91CF910895CE01E9
:1007A00001960E940401019719F4898190E0F3CF2A
:1007B0008FEF9FEFF0CF0F931F93CF93DF931F9295
:1007C000CDB7DEB78C01FC018485958597FF0BC002
:1007D000CE0101960E940401019771F4898190E095
:1007E000F80195878487F801848595850F90DF91BE
:1007F000CF911F910F9108958FEF9FEFF1CFFC01E3
:100800008485958597FD0BC09FB7F89482E080930F
:10081000E9008091F2009FBF90E0019608959FB794
:10082000F89482E08093E9008091F2009FBF90E00D
:100830000895809105020E949F01892B59F00E9422
:10084000F60160930F02709310028093110290934F
:10085000120208950E94F60160931302709314022D
:100860008093150290931602809104028260809317
:1008700004020895FC0101900020E9F73197AF01CF
:10088000481B590BBC0183EB91E00C9413038F922E
:100890009F92AF92BF920F931F93CF93DF93CDB7E9
:1008A000DEB7A1970FB6F894DEBF0FBECDBF19A279
:1008B000423008F44AE08E010F5D1F4F842E912CC8
:1008C000B12CA12CA50194010E94E60BE62FB901E1
:1008D000CA01EA30F4F4E05DD801EE938D01232BD8
:1008E000242B252B79F790E080E0109719F0CD01AB
:1008F0000E943A04A1960FB6F894DEBF0FBECDBF9A
:10090000DF91CF911F910F91BF90AF909F908F90EB
:100910000895E95CE1CF1F920F920FB60F92112458
:100920002F933F938F939F93AF93BF9380919D019C
:1009300090919E01A0919F01B091A00130919C01E6
:1009400023E0230F2D3758F50196A11DB11D2093EB
:100950009C0180939D0190939E01A0939F01B09371
:10096000A0018091A1019091A201A091A301B09159
:10097000A4010196A11DB11D8093A1019093A20134
:10098000A093A301B093A401BF91AF919F918F91C8
:100990003F912F910F900FBE0F901F90189526E852
:1009A000230F0296A11DB11DD2CF1F920F920FB639
:1009B0000F9211242F933F934F935F936F937F93E5
:1009C0008F939F93AF93BF93EF93FF93E0911401A5
:1009D000F09115010995FF91EF91BF91AF919F9112
:1009E0008F917F916F915F914F913F912F910F90D8
:1009F0000FBE0F901F9018951F920F920FB60F9277
:100A000011242F933F934F935F936F937F938F9313
:100A10009F93AF93BF93EF93FF93E0911201F091F7
:100A200013010995FF91EF91BF91AF919F918F9124
:100A30007F916F915F914F913F912F910F900FBEDA
:100A40000F901F9018951F920F920FB60F921124BE
:100A50002F933F934F935F936F937F938F939F93C6
:100A6000AF93BF93EF93FF93E0911001F0911101C9
:100A70000995FF91EF91BF91AF919F918F917F91D8
:100A80006F915F914F913F912F910F900FBE0F90FB
:100A90001F9018951F920F920FB60F9211242F934B
:100AA0003F934F935F936F937F938F939F93AF93F6
:100AB000BF93EF93FF93E0910E01F0910F01099521
:100AC000FF91EF91BF91AF919F918F917F916F9126
:100AD0005F914F913F912F910F900FBE0F901F90FC
:100AE00018951F920F920FB60F9211242F933F93D8
:100AF0004F935F936F937F938F939F93AF93BF9326
:100B0000EF93FF93E0910C01F0910D010995FF9196
:100B1000EF91BF91AF919F918F917F916F915F9175
:100B20004F913F912F910F900FBE0F901F901895EE
:100B30001F920F920FB60F9211248F939F93809163
:100B4000E1009091E100937F9093E10083FF0FC05B
:100B50001092E90091E09093EB001092EC0092E388
:100B60009093ED001092B20198E09093F00082FF14
:100B700022C093E09093E9009091F200992319F03C
:100B80009AE39093E80090918901992341F0909124
:100B90008901915090938901911101C05D9A9091C2
:100BA000B101992341F09091B10191509093B1011D
:100BB000911101C0289A84FF18C08091E2008E7EB6
:100BC00081608093E2008091E1008F7E8093E1005C
:100BD00080918A018E7E806180938A019F918F919E
:100BE0000F900FBE0F901F90189580FFF7CF809148
:100BF000E2008E7E80618093E2008091E1008E7E33
:100C00008093E10080918A018E7E8160E5CF1F9202
:100C10000F920FB60F921124CF92DF92EF92FF92B4
:100C20000F931F932F933F934F935F936F937F93F4
:100C30008F939F93AF93BF93EF93FF93CF93DF93E4
:100C4000CDB7DEB76C97DEBFCDBF1092E9008091C3
:100C5000E80083FF25C068E0CE0145960E940603A8
:100C600082EF8093E8008D8987FF39C09091E8007A
:100C700090FFFCCF982F907609F034C19E894F8960
:100C8000588D2F89F88C911131C0803861F5809191
:100C90008B018093F1001092F1008EEF8093E800B9
:100CA0006C960FB6F894DEBF0FBECDBFDF91CF912B
:100CB000FF91EF91BF91AF919F918F917F916F9134
:100CC0005F914F913F912F911F910F91FF90EF9066
:100CD000DF90CF900F900FBE0F901F9018959EEF52
:100CE0009093E800C7CF1092F100D5CF913059F41E
:100CF0008111D3CF4130510581F680918B018D7FD9
:100D000080938B01CACF933049F48111C6CF413013
:100D1000510519F680918B018260F2CF953041F434
:100D20008091E80080FFFCCF20682093E300B5CFDE
:100D3000963009F0A9C00B8D1C8D22E01092E900BD
:100D40001092870110928601F2122EC01092850136
:100D5000109284010E94D5021F8299E09983FA8241
:100D600091E09E8390EA98879AEF99872091860177
:100D700030918701275F3F4F3C832B838D831092F7
:100D8000E90010928701109286011093850100936B
:100D9000840149E050E0BE016F5F7F4F80E00E9418
:100DA000AF020E94D50279CF109385010093840190
:100DB0000E943F01DC0112960D911C910115110555
:100DC00009F451C1D801ED91FC910480F581E02D29
:100DD000BE016B5E7F4FC8010995009709F03EC1C7
:100DE000F80100851185EACFF3E0FF120EC08F896C
:100DF000882309F440C0823061F440E862E187E171
:100E000091E00E947C02811148CF81E28093EB0047
:100E100047CF813029F440E862E184E091E0F1CFEE
:100E2000833099F70E943F01DC011296ED90FC900F
:100E30008E010F5F1F4F6801E114F10479F0D701B3
:100E4000ED91FC910680F781E02DB801C70109956D
:100E5000080F111DF701E084F184EECFD8011C9238
:100E6000F60101900020E9F73197BF016C197D0967
:100E700040E0C601C6CF6EEE70E0FB01449150E049
:100E800080E80E94AF0209CF973009F4BECF9830B6
:100E900021F481E08093F10000CF993009F0FDCE7C
:100EA000837009F0B2CFE7E1F1E081E031E096E351
:100EB0002191222371F08093E9003093EB00DF0150
:100EC00011972C912093EC009093ED008F5F873069
:100ED00079F78EE78093EA001092EA008F89809379
:100EE000B201DBCE8B8D9C8D1092E90010928701B0
:100EF000109286019093850180938401898D8111E0
:100F000092C08E899D89913A49F4813209F07DCF52
:100F100047E050E064E071E080E0B3CF913209F047
:100F200074CF833269F48F89988DB0E0A0E080930C
:100F3000000190930101A0930201B0930301ADCE93
:100F4000803269F48091E80082FFFCCF67E084E0A2
:100F500091E00E9406038BEF8093E8009ECE8232E0
:100F600009F09BCE8F8980930B01EEEFFFE785910F
:100F700094918B3F9C4D51F1E0E0F8E080910401A9
:100F800090910501A0910601B0910701803B94402A
:100F9000A105B105F1F480910B0180FD1AC0EE3F6F
:100FA0008AE0F80789F587E797E791838083809146
:100FB00060008093880188E19BE00FB6F894A895C3
:100FC000809360000FBE9093600067CEEEEFFAE072
:100FD000D5CF808191818737974709F05ECEA8955C
:100FE0008091600088618093600080918801809387
:100FF0006000EE3F2AE0F20789F08091FE0A9091AE
:10100000FF0A9183808349CE808191818737980739
:1010100051F29093FF0A8093FE0AC5CF1092FF0A07
:101020001092FE0A3ACE0E943F01DC0112960D9109
:101030001C910115110509F4E8CED801ED91FC9140
:101040000190F081E02DBE016B5E7F4FC8010995D4
:10105000811123CEF80100851185EBCF18161906F2
:101060000CF41BCED2CEF1E0FF12BECE62EF70E0E8
:1010700004CF1F920F920FB60F9211242F933F931C
:101080004F935F936F937F938F939F93AF93BF9390
:10109000EF93FF93CF93DF9300D01F92CDB7DEB7CE
:1010A00083B1898389819091030289278A83809102
:1010B0006B009A8189238B838B8180FF05C0E0912F
:1010C0008C01F0918D0109958B8181FF05C0E09124
:1010D0008E01F0918F0109958B8182FF05C0E0910F
:1010E0009001F091910109958B8183FF05C0E091FA
:1010F0009201F091930109958B8184FF05C0E091E5
:101100009401F091950109958B8185FF05C0E091CF
:101110009601F091970109958B8186FF05C0E091BA
:101120009801F091990109958B8187FF05C0E091A5
:101130009A01F0919B0109958981809303020F9098
:101140000F900F90DF91CF91FF91EF91BF91AF91F1
:101150009F918F917F916F915F914F913F912F91CF
:101160000F900FBE0F901F901895E3EBF1E01382E4
:10117000128288EE93E0A0E0B0E084839583A6839A
:10118000B7838BE291E0918380838FEF9FEF958708
:10119000848783B180930302E4E0F2E0108213823B
:1011A0001482158216828AE090E0A0E0B0E0878386
:1011B0009087A187B28713861486158616861786B0
:1011C000108A118A128A80E090E0A6ECB2E4838B48
:1011D000948BA58BB68B82E0818383E08283089514
:1011E000789484B5826084BD84B5816084BD85B502
:1011F000826085BD85B5816085BD80916E0081600E
:1012000080936E00109281008091810082608093B3
:1012100081008091810081608093810080918000B5
:101220008160809380008091910082608093910022
:101230008091910081608093910080919000816005
:10124000809390008091C10084608093C100809160
:10125000C10082608093C1008091C1008160809351
:10126000C1008091C30081608093C3008091C00061
:1012700082608093C0008091C20081608093C20030
:1012800080917A00846080937A0080917A008260F5
:1012900080937A0080917A00816080937A008091B7
:1012A0007A00806880937A001092B20110928B01CC
:1012B00010928A018091D70081608093D70080EAE4
:1012C0008093D80089B5806189BD89B5826089BD68
:1012D00009B400FEFDCF61E070E080E090E00E9484
:1012E0001B028091D8008F7C80618093D800809110
:1012F000E000807F8093E0008091E1008E7E80930B
:10130000E1008DE08093E200559A209A8FEF9FEFE5
:101310009093C0018093BF018091050290E0FC0191
:10132000ED58FE4F24918C5A9E4FFC0184918823E6
:10133000C1F090E0880F991FFC01E65DFE4FC5915A
:10134000D491FC01E85CFE4FA591B4919FB7F8944D
:101350008881E22FE0958E2388838C91E823EC939B
:101360009FBF80910502843018F0873009F05DC17D
:1013700089E391E00E943A0483E591E00E943A04F7
:1013800080910502882309F442C1813009F00EC121
:1013900089E194E090931301809312018091690098
:1013A0008F73806480936900EB9A8091060290E0CD
:1013B000FC01ED58FE4F24918C5A9E4FFC01849104
:1013C000882399F090E0880F991FFC01E65DFE4F9D
:1013D000A591B491FC01E85CFE4F859194918FB783
:1013E000F894EC91E22BEC938FBF03E710E0C0E0A0
:1013F000D0E08091040281FF2EC0F8948091130206
:1014000090911402A0911502B091160240910F0222
:10141000509110026091110270911202841B950B81
:10142000209104022D7F209304027894009799F074
:10143000BC0190E080E00E94210D20E030E048E611
:1014400052E40E94800C60931702709318028093FC
:10145000190290931A02809105020E949F01892B24
:1014600099F02FB7F89480919D0190919E01A091E1
:101470009F01B091A0012FBF8093070290930802B3
:10148000A0930902B0930A022FB7F89480919D01AE
:1014900090919E01A0919F01B091A0012FBF40911A
:1014A0000702509108026091090270910A02841BA0
:1014B000950BA60BB70B40910B0250910C0260915B
:1014C0000D0270910E0284179507A607B707A0F1C9
:1014D000F89410920F0210921002109211021092C2
:1014E000120210921302109214021092150210921E
:1014F00016021092040278942FB7F89480919D01FF
:1015000090919E01A0919F01B091A0012FBF809367
:10151000070290930802A0930902B0930A0261E0C7
:10152000809106020E94C801C8010197F1F760E0AE
:10153000809106020E94C80180910402C0901702A7
:10154000D0901802E0901902F0901A0262E370E065
:1015500080E090E00E941B022FB7F89460919D01FB
:1015600070919E0180919F019091A0012FBF4AE050
:101570000E94470469E083EB91E00E949803A70171
:101580009601C701B6010E94450E882309F48CC05C
:1015900083E791E00E943A048FE791E00E943A04C9
:1015A000209709F426CF0E94000023CF823071F4E7
:1015B00089E194E090930F0180930E01809169007E
:1015C000837F846080936900E99AEFCE833071F461
:1015D00089E194E090930D0180930C018091690062
:1015E0008C7F816080936900E89ADFCE873009F0B4
:1015F000DCCE89E194E090931501809314018091F1
:101600006A008F7C806180936A00EE9ACECE89E179
:1016100094E09093110180931001809169008F7C78
:10162000806180936900EA9AC0CE86E591E00E94CD
:101630003A0483E591E00E943A04E0910502E85003
:101640002FEFEA3020F4F0E0E35EFE4F2081F894C3
:1016500051E05093680040916B00E22FF0E081E090
:1016600090E0BC0102C0660F771F2A95E2F7842F35
:10167000862B80936B00EE0FFF1FE457FE4F89E12E
:1016800094E0918380835BBB90910302862F8095C9
:1016900089238093030283B1909103028623892BCF
:1016A00080930302789481CE46015701E894B7F8FD
:1016B0002FEF3FEF4FE75FE7C501B4010E94450EF2
:1016C00081110DC02FEF3FEF4FE75FE7C501B40178
:1016D0000E947B0C18161CF487E791E05BCF2FEF7C
:1016E0003FEF4FE75FE4C701B6010E94D30D181624
:1016F0001CF48BE791E04ECF2FEF3FEF4FE75FEC0D
:10170000C701B6010E947B0C87FDF3CF20E030E0DB
:10171000A901C701B6010E947B0C87FF09C06DE2D9
:1017200083EB91E00E949803F7FAF094F7F8F094B5
:101730002AE037ED43EA5BE3C701B6010E940F0CD4
:101740004B015C010E94F20C6B017C010E94210D97
:101750009B01AC01C501B4010E940E0C4B015C0160
:101760004AE0C701B6010E9447046EE283EB91E0B4
:101770000E94980320E030E040E251E4C501B4014A
:101780000E94D80D4B015C010E94F20C6B01F12C00
:10179000E12C4AE0C701B6010E944704C701B60127
:1017A0000E94210D9B01AC01C501B4010E940E0CE9
:1017B00020E030E040E251E40E94D80D0E94F20C9B
:1017C00090E080E04AE00E944704E6CEA1E21A2EB3
:1017D000AA1BBB1BFD010DC0AA1FBB1FEE1FFF1FD5
:1017E000A217B307E407F50720F0A21BB30BE40B25
:1017F000F50B661F771F881F991F1A9469F760956C
:101800007095809590959B01AC01BD01CF01089525
:10181000EE0FFF1F0590F491E02D09945058BB275F
:10182000AA270E94260C0C94990D0E948B0D38F06B
:101830000E94920D20F039F49F3F19F426F40C9485
:10184000880D0EF4E095E7FB0C94820DE92F0E94C1
:10185000AA0D58F3BA17620773078407950720F09B
:1018600079F4A6F50C94CC0D0EF4E0950B2EBA2F5E
:10187000A02D0B01B90190010C01CA01A001112496
:10188000FF27591B99F0593F50F4503E68F11A1642
:10189000F040A22F232F342F4427585FF3CF4695D3
:1018A00037952795A795F0405395C9F77EF41F16F5
:1018B000BA0B620B730B840BBAF09150A1F0FF0FBF
:1018C000BB1F661F771F881FC2F70EC0BA0F621FAB
:1018D000731F841F48F4879577956795B795F7959B
:1018E0009E3F08F0B0CF9395880F08F09927EE0F30
:1018F0009795879508950E945E0D08F481E00895FC
:101900000E94940C0C94990D0E94920D58F00E9424
:101910008B0D40F029F45F3F29F00C94820D51119A
:101920000C94CD0D0C94880D0E94AA0D68F3992398
:10193000B1F3552391F3951B550BBB27AA276217CB
:101940007307840738F09F5F5F4F220F331F441FD8
:10195000AA1FA9F335D00E2E3AF0E0E832D091500C
:101960005040E695001CCAF72BD0FE2F29D0660FF9
:10197000771F881FBB1F261737074807AB07B0E83C
:1019800009F0BB0B802DBF01FF2793585F4F3AF042
:101990009E3F510578F00C94820D0C94CD0D5F3F65
:1019A000E4F3983ED4F3869577956795B795F795C8
:1019B0009F5FC9F7880F911D9695879597F90895B0
:1019C000E1E0660F771F881FBB1F6217730784074C
:1019D000BA0720F0621B730B840BBA0BEE1F88F75B
:1019E000E09508950E94B20D88F09F5798F0B92FA6
:1019F0009927B751B0F0E1F0660F771F881F991F44
:101A00001AF0BA95C9F714C0B13091F00E94CC0D0C
:101A1000B1E008950C94CC0D672F782F8827B85F1C
:101A200039F0B93FCCF3869577956795B395D9F79B
:101A30003EF490958095709561957F4F8F4F9F4FA5
:101A40000895E89409C097FB3EF4909580957095B1
:101A500061957F4F8F4F9F4F9923A9F0F92F96E9FA
:101A6000BB279395F695879577956795B795F1116F
:101A7000F8CFFAF4BB0F11F460FF1BC06F5F7F4F0C
:101A80008F4F9F4F16C0882311F096E911C077231E
:101A900021F09EE8872F762F05C0662371F096E827
:101AA000862F70E060E02AF09A95660F771F881FF6
:101AB000DAF7880F9695879597F90895990F00089A
:101AC000550FAA0BE0E8FEEF16161706E807F90710
:101AD000C0F012161306E407F50798F0621B730BAB
:101AE000840B950B39F40A2661F0232B242B252B2C
:101AF00021F408950A2609F4A140A6958FEF811DCF
:101B0000811D089597F99F6780E870E060E008956F
:101B10009FEF80EC089500240A9416161706180605
:101B20000906089500240A941216130614060506E1
:101B30000895092E0394000C11F4882352F0BB0F72
:101B400040F4BF2B11F460FF04C06F5F7F4F8F4FD5
:101B50009F4F089557FD9058440F551F59F05F3F10
:101B600071F04795880F97FB991F61F09F3F79F0BF
:101B700087950895121613061406551FF2CF469541
:101B8000F1DF08C0161617061806991FF1CF8695C3
:101B90007105610508940895E894BB2766277727A7
:101BA000CB0197F908950E945E0D08F48FEF089518
:101BB0000E94EB0D0C94990D0E948B0D38F00E9441
:101BC000920D20F0952311F00C94820D0C94880D49
:101BD00011240C94CD0D0E94AA0D70F3959FC1F3B2
:101BE000950F50E0551F629FF001729FBB27F00DCB
:101BF000B11D639FAA27F00DB11DAA1F649F662720
:101C0000B00DA11D661F829F2227B00DA11D621F6E
:101C1000739FB00DA11D621F839FA00D611D221F28
:101C2000749F3327A00D611D231F849F600D211D0C
:101C3000822F762F6A2F11249F5750409AF0F1F08F
:101C400088234AF0EE0FFF1FBB1F661F771F881FF8
:101C500091505040A9F79E3F510580F00C94820DA1
:101C60000C94CD0D5F3FE4F3983ED4F386957795C1
:101C70006795B795F795E7959F5FC1F7FE2B880F9E
:101C8000911D9695879597F908950E945E0D880B92
:081C9000990B0895F894FFCFB1
:101C9800FFFFFFFF00E10000000000004D024D02C1
:101CA8004D024D024D0200C180810000000405066E
:101CB80007FFFF030102000000000098031303B9A7
:101CC80003AE03FF03BD03DB0341747461636869FA
:101CD8006E672072616E676566696E646572204919
:101CE8005352000D0A00417474616368696E67207D
:101CF80072616E676566696E6465722050435F49FC
:101D08005352006E616E00696E66006F7666002041
:041D1800636D0A00ED
:00000001FF
